S0510000433A5C55736572735C616A6261695C4465736B746F705C434D5045313235305C4D79436F64655C41647269616E422D436F64655C494341735C49434130355C62696E5C50726F6A6563742E61627369
S123C000FEC033FDC031270E35ED31EC3169700434FB310326F2FEC035EC31270BED3118C8
S123C0200A30700434F920F13DCF210007D206C0530001C037C0F221000002000000000024
S123C0400000000000000000000000000000000000000079003C16C099203C16C0C87C2121
S123C060008C00022C211F02790206C6208716C0A21F02790106C6408716C0A21F02790812
S123C08006C6808716C0A21E027904051F027910CAC6E08716C0AD20C2C6E07B027B515B5F
S123C0A08D3D3BF60279EA817B02793A3D3BE68151F402797B02793A3D3BF60279E4812727
S123C0C003C60121C787303D1869AEC6208707E9044405C601876C80C6808707DC044403A8
S117C0E0186280C6408707D1044403186280EC80303D0000CB
S105FFFEC02914
S9030000FC
