S01200004154504D4547413332382E7372656376
S11300000C945A000C9477000C9477000C947700AD
S11300100C9477000C9477000C9477000C94770080
S11300200C9477000C9477000C9477000C94620184
S11300300C9477000C9477000C9477000C94770060
S11300400C947C010C9477000C9477000C9477004A
S11300500C9477000C9477000C9477000C94770040
S11300600C9477000C9477000C9477000C94770030
S11300700C9477000C9477000C9477000C94770020
S11300800C9477000C9477000C9477000C94770010
S11300900C9477000C9477000C9477000C94770000
S11300A00C9477000C9477000C9477000C947700F0
S11300B00C94770011241FBECFEFD8E0DEBFCDBF74
S11300C011E0A0E0B1E0EEE5F3E002C005900D928E
S11300D0A031B107D9F721E0A0E1B1E001C01D9240
S11300E0A131B207E1F70E9426010C94AD010C94F2
S11300F00000CF92DF92EF92FF920F931F936B0158
S11301007C01CC0CDD1CEE1CFF1CD701C601880F42
S1130110991FAA1FBB1F880F991FAA1FBB1F8C0DF5
S11301209D1DAE1DBF1DBC01CD01689413F89695AD
S11301308795779567951694D1F70E948B01CA012C
S1130140B9016B5F7F4F8F4F9F4F2AE030E040E053
S113015050E00E948B0121503109211580E13807BC
S1130160C8F4E4E6F0E080818D7F80833093C5009D
S11301702093C40088E18093C10086E08093C2008C
S1130180012B59F0E1ECF0E080818068808380E00D
S113019090E005C08FEF9FEF02C080E090E01F91D8
S11301A00F91FF90EF90DF90CF9008959091C00051
S11301B095FFFCCF9091C00096FF03C090E490930C
S11301C0C0008093C6000895CF93DF93EC0103C071
S11301D00E94D600219688818111FACFDF91CF91B8
S11301E00895E4E6F0E09081977F9083E1E8F0E001
S11301F010829081892B8083809184009091850066
S1130200680F791F709389006093880082E080935F
S11302106F000895E4E6F0E090819F7D9083811162
S113022014C0411103C083E884BD02C083EC84BDC3
S113023065BD8FE787BD8AB180648AB9232B29F015
S1130240EEE6F0E0808181608083089500E010E0B4
S113025020E835E240E050E060E874E88EE190E0A8
S11302600E94790080E091E00E94E4006AEF70E06F
S113027082E00E94F10021E030E040E063E080E0B1
S11302800E940A0183B7816083BF789487B18E7F0F
S113029087B98AB188608AB98AB180618AB98BB119
S11302A080618BB9309907C08BB1877F8BB98EE1A0
S11302B080931001F7CF8BB188608BB986E480936B
S11302C01001F0CF1F920F920FB60F9211248F934B
S11302D09F93EF93FF93E8E8F0E08081918186504B
S11302E09F4F91838083FF91EF919F918F910F9006
S11302F00FBE0F901F9018951F920F920FB60F927A
S113030011248F938091100187BD8F910F900FBEA0
S11303100F901F901895A1E21A2EAA1BBB1BFD017A
S11303200DC0AA1FBB1FEE1FFF1FA217B307E407D0
S1130330F50720F0A21BB30BE40BF50B661F771F28
S1130340881F991F1A9469F7609570958095909508
S11103509B01AC01BD01CF010895F894FFCFCD
S113035E0A333238205570212050574D210A00009F
S9030000FC
